{
  "contractName": "SampleToken",
  "abi": [
    {
      "inputs": [
        {
          "internalType": "string",
          "name": "tokenName",
          "type": "string"
        },
        {
          "internalType": "string",
          "name": "tokenSymbol",
          "type": "string"
        },
        {
          "internalType": "uint256",
          "name": "totalSupply",
          "type": "uint256"
        }
      ],
      "stateMutability": "nonpayable",
      "type": "constructor"
    },
    {
      "anonymous": false,
      "inputs": [
        {
          "indexed": true,
          "internalType": "address",
          "name": "owner",
          "type": "address"
        },
        {
          "indexed": true,
          "internalType": "address",
          "name": "spender",
          "type": "address"
        },
        {
          "indexed": false,
          "internalType": "uint256",
          "name": "value",
          "type": "uint256"
        }
      ],
      "name": "Approval",
      "type": "event"
    },
    {
      "anonymous": false,
      "inputs": [
        {
          "indexed": true,
          "internalType": "bytes32",
          "name": "role",
          "type": "bytes32"
        },
        {
          "indexed": true,
          "internalType": "bytes32",
          "name": "previousAdminRole",
          "type": "bytes32"
        },
        {
          "indexed": true,
          "internalType": "bytes32",
          "name": "newAdminRole",
          "type": "bytes32"
        }
      ],
      "name": "RoleAdminChanged",
      "type": "event"
    },
    {
      "anonymous": false,
      "inputs": [
        {
          "indexed": true,
          "internalType": "bytes32",
          "name": "role",
          "type": "bytes32"
        },
        {
          "indexed": true,
          "internalType": "address",
          "name": "account",
          "type": "address"
        },
        {
          "indexed": true,
          "internalType": "address",
          "name": "sender",
          "type": "address"
        }
      ],
      "name": "RoleGranted",
      "type": "event"
    },
    {
      "anonymous": false,
      "inputs": [
        {
          "indexed": true,
          "internalType": "bytes32",
          "name": "role",
          "type": "bytes32"
        },
        {
          "indexed": true,
          "internalType": "address",
          "name": "account",
          "type": "address"
        },
        {
          "indexed": true,
          "internalType": "address",
          "name": "sender",
          "type": "address"
        }
      ],
      "name": "RoleRevoked",
      "type": "event"
    },
    {
      "anonymous": false,
      "inputs": [
        {
          "indexed": true,
          "internalType": "address",
          "name": "from",
          "type": "address"
        },
        {
          "indexed": true,
          "internalType": "address",
          "name": "to",
          "type": "address"
        },
        {
          "indexed": false,
          "internalType": "uint256",
          "name": "value",
          "type": "uint256"
        }
      ],
      "name": "Transfer",
      "type": "event"
    },
    {
      "inputs": [],
      "name": "BURNERROLE",
      "outputs": [
        {
          "internalType": "bytes32",
          "name": "",
          "type": "bytes32"
        }
      ],
      "stateMutability": "view",
      "type": "function",
      "constant": true
    },
    {
      "inputs": [],
      "name": "DEFAULT_ADMIN_ROLE",
      "outputs": [
        {
          "internalType": "bytes32",
          "name": "",
          "type": "bytes32"
        }
      ],
      "stateMutability": "view",
      "type": "function",
      "constant": true
    },
    {
      "inputs": [],
      "name": "MINTERROLE",
      "outputs": [
        {
          "internalType": "bytes32",
          "name": "",
          "type": "bytes32"
        }
      ],
      "stateMutability": "view",
      "type": "function",
      "constant": true
    },
    {
      "inputs": [
        {
          "internalType": "address",
          "name": "owner",
          "type": "address"
        },
        {
          "internalType": "address",
          "name": "spender",
          "type": "address"
        }
      ],
      "name": "allowance",
      "outputs": [
        {
          "internalType": "uint256",
          "name": "",
          "type": "uint256"
        }
      ],
      "stateMutability": "view",
      "type": "function",
      "constant": true
    },
    {
      "inputs": [
        {
          "internalType": "address",
          "name": "spender",
          "type": "address"
        },
        {
          "internalType": "uint256",
          "name": "amount",
          "type": "uint256"
        }
      ],
      "name": "approve",
      "outputs": [
        {
          "internalType": "bool",
          "name": "",
          "type": "bool"
        }
      ],
      "stateMutability": "nonpayable",
      "type": "function"
    },
    {
      "inputs": [
        {
          "internalType": "address",
          "name": "account",
          "type": "address"
        }
      ],
      "name": "balanceOf",
      "outputs": [
        {
          "internalType": "uint256",
          "name": "",
          "type": "uint256"
        }
      ],
      "stateMutability": "view",
      "type": "function",
      "constant": true
    },
    {
      "inputs": [],
      "name": "decimals",
      "outputs": [
        {
          "internalType": "uint8",
          "name": "",
          "type": "uint8"
        }
      ],
      "stateMutability": "view",
      "type": "function",
      "constant": true
    },
    {
      "inputs": [
        {
          "internalType": "address",
          "name": "spender",
          "type": "address"
        },
        {
          "internalType": "uint256",
          "name": "subtractedValue",
          "type": "uint256"
        }
      ],
      "name": "decreaseAllowance",
      "outputs": [
        {
          "internalType": "bool",
          "name": "",
          "type": "bool"
        }
      ],
      "stateMutability": "nonpayable",
      "type": "function"
    },
    {
      "inputs": [
        {
          "internalType": "bytes32",
          "name": "role",
          "type": "bytes32"
        }
      ],
      "name": "getRoleAdmin",
      "outputs": [
        {
          "internalType": "bytes32",
          "name": "",
          "type": "bytes32"
        }
      ],
      "stateMutability": "view",
      "type": "function",
      "constant": true
    },
    {
      "inputs": [
        {
          "internalType": "bytes32",
          "name": "role",
          "type": "bytes32"
        },
        {
          "internalType": "address",
          "name": "account",
          "type": "address"
        }
      ],
      "name": "grantRole",
      "outputs": [],
      "stateMutability": "nonpayable",
      "type": "function"
    },
    {
      "inputs": [
        {
          "internalType": "bytes32",
          "name": "role",
          "type": "bytes32"
        },
        {
          "internalType": "address",
          "name": "account",
          "type": "address"
        }
      ],
      "name": "hasRole",
      "outputs": [
        {
          "internalType": "bool",
          "name": "",
          "type": "bool"
        }
      ],
      "stateMutability": "view",
      "type": "function",
      "constant": true
    },
    {
      "inputs": [
        {
          "internalType": "address",
          "name": "spender",
          "type": "address"
        },
        {
          "internalType": "uint256",
          "name": "addedValue",
          "type": "uint256"
        }
      ],
      "name": "increaseAllowance",
      "outputs": [
        {
          "internalType": "bool",
          "name": "",
          "type": "bool"
        }
      ],
      "stateMutability": "nonpayable",
      "type": "function"
    },
    {
      "inputs": [],
      "name": "name",
      "outputs": [
        {
          "internalType": "string",
          "name": "",
          "type": "string"
        }
      ],
      "stateMutability": "view",
      "type": "function",
      "constant": true
    },
    {
      "inputs": [
        {
          "internalType": "bytes32",
          "name": "role",
          "type": "bytes32"
        },
        {
          "internalType": "address",
          "name": "account",
          "type": "address"
        }
      ],
      "name": "renounceRole",
      "outputs": [],
      "stateMutability": "nonpayable",
      "type": "function"
    },
    {
      "inputs": [
        {
          "internalType": "bytes32",
          "name": "role",
          "type": "bytes32"
        },
        {
          "internalType": "address",
          "name": "account",
          "type": "address"
        }
      ],
      "name": "revokeRole",
      "outputs": [],
      "stateMutability": "nonpayable",
      "type": "function"
    },
    {
      "inputs": [
        {
          "internalType": "bytes4",
          "name": "interfaceId",
          "type": "bytes4"
        }
      ],
      "name": "supportsInterface",
      "outputs": [
        {
          "internalType": "bool",
          "name": "",
          "type": "bool"
        }
      ],
      "stateMutability": "view",
      "type": "function",
      "constant": true
    },
    {
      "inputs": [],
      "name": "symbol",
      "outputs": [
        {
          "internalType": "string",
          "name": "",
          "type": "string"
        }
      ],
      "stateMutability": "view",
      "type": "function",
      "constant": true
    },
    {
      "inputs": [],
      "name": "totalSupply",
      "outputs": [
        {
          "internalType": "uint256",
          "name": "",
          "type": "uint256"
        }
      ],
      "stateMutability": "view",
      "type": "function",
      "constant": true
    },
    {
      "inputs": [
        {
          "internalType": "address",
          "name": "to",
          "type": "address"
        },
        {
          "internalType": "uint256",
          "name": "amount",
          "type": "uint256"
        }
      ],
      "name": "transfer",
      "outputs": [
        {
          "internalType": "bool",
          "name": "",
          "type": "bool"
        }
      ],
      "stateMutability": "nonpayable",
      "type": "function"
    },
    {
      "inputs": [
        {
          "internalType": "address",
          "name": "from",
          "type": "address"
        },
        {
          "internalType": "address",
          "name": "to",
          "type": "address"
        },
        {
          "internalType": "uint256",
          "name": "amount",
          "type": "uint256"
        }
      ],
      "name": "transferFrom",
      "outputs": [
        {
          "internalType": "bool",
          "name": "",
          "type": "bool"
        }
      ],
      "stateMutability": "nonpayable",
      "type": "function"
    },
    {
      "inputs": [
        {
          "internalType": "address",
          "name": "_to",
          "type": "address"
        },
        {
          "internalType": "uint256",
          "name": "_amount",
          "type": "uint256"
        }
      ],
      "name": "mint",
      "outputs": [],
      "stateMutability": "nonpayable",
      "type": "function"
    },
    {
      "inputs": [
        {
          "internalType": "address",
          "name": "_to",
          "type": "address"
        },
        {
          "internalType": "uint256",
          "name": "_amount",
          "type": "uint256"
        }
      ],
      "name": "burn",
      "outputs": [],
      "stateMutability": "nonpayable",
      "type": "function"
    }
  ],
  "bytecode": "0x60806040523480156200001157600080fd5b506040516200316238038062003162833981810160405281019062000037919062000564565b828281600390816200004a91906200083f565b5080600490816200005c91906200083f565b5050506200007133826200008f60201b60201c565b620000866000801b336200020760201b60201c565b50505062000a63565b600073ffffffffffffffffffffffffffffffffffffffff168273ffffffffffffffffffffffffffffffffffffffff160362000101576040517f08c379a0000000000000000000000000000000000000000000000000000000008152600401620000f89062000987565b60405180910390fd5b62000115600083836200021d60201b60201c565b8060026000828254620001299190620009d8565b92505081905550806000808473ffffffffffffffffffffffffffffffffffffffff1673ffffffffffffffffffffffffffffffffffffffff1681526020019081526020016000206000828254620001809190620009d8565b925050819055508173ffffffffffffffffffffffffffffffffffffffff16600073ffffffffffffffffffffffffffffffffffffffff167fddf252ad1be2c89b69c2b068fc378daa952ba7f163c4a11628f55a4df523b3ef83604051620001e7919062000a46565b60405180910390a362000203600083836200022260201b60201c565b5050565b6200021982826200022760201b60201c565b5050565b505050565b505050565b6200023982826200031960201b60201c565b620003155760016005600084815260200190815260200160002060000160008373ffffffffffffffffffffffffffffffffffffffff1673ffffffffffffffffffffffffffffffffffffffff16815260200190815260200160002060006101000a81548160ff021916908315150217905550620002ba6200038460201b60201c565b73ffffffffffffffffffffffffffffffffffffffff168173ffffffffffffffffffffffffffffffffffffffff16837f2f8788117e7eff1d82e926ec794901d17c78024a50270940304540a733656f0d60405160405180910390a45b5050565b60006005600084815260200190815260200160002060000160008373ffffffffffffffffffffffffffffffffffffffff1673ffffffffffffffffffffffffffffffffffffffff16815260200190815260200160002060009054906101000a900460ff16905092915050565b600033905090565b6000604051905090565b600080fd5b600080fd5b600080fd5b600080fd5b6000601f19601f8301169050919050565b7f4e487b7100000000000000000000000000000000000000000000000000000000600052604160045260246000fd5b620003f582620003aa565b810181811067ffffffffffffffff82111715620004175762000416620003bb565b5b80604052505050565b60006200042c6200038c565b90506200043a8282620003ea565b919050565b600067ffffffffffffffff8211156200045d576200045c620003bb565b5b6200046882620003aa565b9050602081019050919050565b60005b838110156200049557808201518184015260208101905062000478565b83811115620004a5576000848401525b50505050565b6000620004c2620004bc846200043f565b62000420565b905082815260208101848484011115620004e157620004e0620003a5565b5b620004ee84828562000475565b509392505050565b600082601f8301126200050e576200050d620003a0565b5b815162000520848260208601620004ab565b91505092915050565b6000819050919050565b6200053e8162000529565b81146200054a57600080fd5b50565b6000815190506200055e8162000533565b92915050565b60008060006060848603121562000580576200057f62000396565b5b600084015167ffffffffffffffff811115620005a157620005a06200039b565b5b620005af86828701620004f6565b935050602084015167ffffffffffffffff811115620005d357620005d26200039b565b5b620005e186828701620004f6565b9250506040620005f4868287016200054d565b9150509250925092565b600081519050919050565b7f4e487b7100000000000000000000000000000000000000000000000000000000600052602260045260246000fd5b600060028204905060018216806200065157607f821691505b60208210810362000667576200066662000609565b5b50919050565b60008190508160005260206000209050919050565b60006020601f8301049050919050565b600082821b905092915050565b600060088302620006d17fffffffffffffffffffffffffffffffffffffffffffffffffffffffffffffffff8262000692565b620006dd868362000692565b95508019841693508086168417925050509392505050565b6000819050919050565b6000620007206200071a620007148462000529565b620006f5565b62000529565b9050919050565b6000819050919050565b6200073c83620006ff565b620007546200074b8262000727565b8484546200069f565b825550505050565b600090565b6200076b6200075c565b6200077881848462000731565b505050565b5b81811015620007a0576200079460008262000761565b6001810190506200077e565b5050565b601f821115620007ef57620007b9816200066d565b620007c48462000682565b81016020851015620007d4578190505b620007ec620007e38562000682565b8301826200077d565b50505b505050565b600082821c905092915050565b60006200081460001984600802620007f4565b1980831691505092915050565b60006200082f838362000801565b9150826002028217905092915050565b6200084a82620005fe565b67ffffffffffffffff811115620008665762000865620003bb565b5b62000872825462000638565b6200087f828285620007a4565b600060209050601f831160018114620008b75760008415620008a2578287015190505b620008ae858262000821565b8655506200091e565b601f198416620008c7866200066d565b60005b82811015620008f157848901518255600182019150602085019450602081019050620008ca565b868310156200091157848901516200090d601f89168262000801565b8355505b6001600288020188555050505b505050505050565b600082825260208201905092915050565b7f45524332303a206d696e7420746f20746865207a65726f206164647265737300600082015250565b60006200096f601f8362000926565b91506200097c8262000937565b602082019050919050565b60006020820190508181036000830152620009a28162000960565b9050919050565b7f4e487b7100000000000000000000000000000000000000000000000000000000600052601160045260246000fd5b6000620009e58262000529565b9150620009f28362000529565b9250827fffffffffffffffffffffffffffffffffffffffffffffffffffffffffffffffff0382111562000a2a5762000a29620009a9565b5b828201905092915050565b62000a408162000529565b82525050565b600060208201905062000a5d600083018462000a35565b92915050565b6126ef8062000a736000396000f3fe608060405234801561001057600080fd5b50600436106101425760003560e01c806340c10f19116100b85780639dc29fac1161007c5780639dc29fac1461039f578063a217fddf146103bb578063a457c2d7146103d9578063a9059cbb14610409578063d547741f14610439578063dd62ed3e1461045557610142565b806340c10f19146102e757806360413a941461030357806370a082311461032157806391d148541461035157806395d89b411461038157610142565b806323b872dd1161010a57806323b872dd14610201578063248a9ca3146102315780632f2ff15d14610261578063313ce5671461027d57806336568abe1461029b57806339509351146102b757610142565b806301cf815e1461014757806301ffc9a71461016557806306fdde0314610195578063095ea7b3146101b357806318160ddd146101e3575b600080fd5b61014f610485565b60405161015c9190611803565b60405180910390f35b61017f600480360381019061017a919061187b565b6104a9565b60405161018c91906118c3565b60405180910390f35b61019d610523565b6040516101aa9190611977565b60405180910390f35b6101cd60048036038101906101c89190611a2d565b6105b5565b6040516101da91906118c3565b60405180910390f35b6101eb6105d8565b6040516101f89190611a7c565b60405180910390f35b61021b60048036038101906102169190611a97565b6105e2565b60405161022891906118c3565b60405180910390f35b61024b60048036038101906102469190611b16565b610611565b6040516102589190611803565b60405180910390f35b61027b60048036038101906102769190611b43565b610631565b005b610285610652565b6040516102929190611b9f565b60405180910390f35b6102b560048036038101906102b09190611b43565b61065b565b005b6102d160048036038101906102cc9190611a2d565b6106de565b6040516102de91906118c3565b60405180910390f35b61030160048036038101906102fc9190611a2d565b610715565b005b61030b61078c565b6040516103189190611803565b60405180910390f35b61033b60048036038101906103369190611bba565b6107b0565b6040516103489190611a7c565b60405180910390f35b61036b60048036038101906103669190611b43565b6107f8565b60405161037891906118c3565b60405180910390f35b610389610863565b6040516103969190611977565b60405180910390f35b6103b960048036038101906103b49190611a2d565b6108f5565b005b6103c361096c565b6040516103d09190611803565b60405180910390f35b6103f360048036038101906103ee9190611a2d565b610973565b60405161040091906118c3565b60405180910390f35b610423600480360381019061041e9190611a2d565b6109ea565b60405161043091906118c3565b60405180910390f35b610453600480360381019061044e9190611b43565b610a0d565b005b61046f600480360381019061046a9190611be7565b610a2e565b60405161047c9190611a7c565b60405180910390f35b7f7cc04350be378072b9718d7fad6ea42827f298dee7458af03a877156a3b2253981565b60007f7965db0b000000000000000000000000000000000000000000000000000000007bffffffffffffffffffffffffffffffffffffffffffffffffffffffff1916827bffffffffffffffffffffffffffffffffffffffffffffffffffffffff1916148061051c575061051b82610ab5565b5b9050919050565b60606003805461053290611c56565b80601f016020809104026020016040519081016040528092919081815260200182805461055e90611c56565b80156105ab5780601f10610580576101008083540402835291602001916105ab565b820191906000526020600020905b81548152906001019060200180831161058e57829003601f168201915b5050505050905090565b6000806105c0610b1f565b90506105cd818585610b27565b600191505092915050565b6000600254905090565b6000806105ed610b1f565b90506105fa858285610cf0565b610605858585610d7c565b60019150509392505050565b600060056000838152602001908152602001600020600101549050919050565b61063a82610611565b61064381610ffb565b61064d838361100f565b505050565b60006012905090565b610663610b1f565b73ffffffffffffffffffffffffffffffffffffffff168173ffffffffffffffffffffffffffffffffffffffff16146106d0576040517f08c379a00000000000000000000000000000000000000000000000000000000081526004016106c790611cf9565b60405180910390fd5b6106da82826110f0565b5050565b6000806106e9610b1f565b905061070a8185856106fb8589610a2e565b6107059190611d48565b610b27565b600191505092915050565b61073f7f969c751711bff3d51c1ec20e83ed427505354a9950cf31d03fb53fa8f028473f336107f8565b61077e576040517f08c379a000000000000000000000000000000000000000000000000000000000815260040161077590611e10565b60405180910390fd5b61078882826111d2565b5050565b7f969c751711bff3d51c1ec20e83ed427505354a9950cf31d03fb53fa8f028473f81565b60008060008373ffffffffffffffffffffffffffffffffffffffff1673ffffffffffffffffffffffffffffffffffffffff168152602001908152602001600020549050919050565b60006005600084815260200190815260200160002060000160008373ffffffffffffffffffffffffffffffffffffffff1673ffffffffffffffffffffffffffffffffffffffff16815260200190815260200160002060009054906101000a900460ff16905092915050565b60606004805461087290611c56565b80601f016020809104026020016040519081016040528092919081815260200182805461089e90611c56565b80156108eb5780601f106108c0576101008083540402835291602001916108eb565b820191906000526020600020905b8154815290600101906020018083116108ce57829003601f168201915b5050505050905090565b61091f7f7cc04350be378072b9718d7fad6ea42827f298dee7458af03a877156a3b22539336107f8565b61095e576040517f08c379a000000000000000000000000000000000000000000000000000000000815260040161095590611ea2565b60405180910390fd5b6109688282611331565b5050565b6000801b81565b60008061097e610b1f565b9050600061098c8286610a2e565b9050838110156109d1576040517f08c379a00000000000000000000000000000000000000000000000000000000081526004016109c890611f34565b60405180910390fd5b6109de8286868403610b27565b60019250505092915050565b6000806109f5610b1f565b9050610a02818585610d7c565b600191505092915050565b610a1682610611565b610a1f81610ffb565b610a2983836110f0565b505050565b6000600160008473ffffffffffffffffffffffffffffffffffffffff1673ffffffffffffffffffffffffffffffffffffffff16815260200190815260200160002060008373ffffffffffffffffffffffffffffffffffffffff1673ffffffffffffffffffffffffffffffffffffffff16815260200190815260200160002054905092915050565b60007f01ffc9a7000000000000000000000000000000000000000000000000000000007bffffffffffffffffffffffffffffffffffffffffffffffffffffffff1916827bffffffffffffffffffffffffffffffffffffffffffffffffffffffff1916149050919050565b600033905090565b600073ffffffffffffffffffffffffffffffffffffffff168373ffffffffffffffffffffffffffffffffffffffff1603610b96576040517f08c379a0000000000000000000000000000000000000000000000000000000008152600401610b8d90611fc6565b60405180910390fd5b600073ffffffffffffffffffffffffffffffffffffffff168273ffffffffffffffffffffffffffffffffffffffff1603610c05576040517f08c379a0000000000000000000000000000000000000000000000000000000008152600401610bfc90612058565b60405180910390fd5b80600160008573ffffffffffffffffffffffffffffffffffffffff1673ffffffffffffffffffffffffffffffffffffffff16815260200190815260200160002060008473ffffffffffffffffffffffffffffffffffffffff1673ffffffffffffffffffffffffffffffffffffffff168152602001908152602001600020819055508173ffffffffffffffffffffffffffffffffffffffff168373ffffffffffffffffffffffffffffffffffffffff167f8c5be1e5ebec7d5bd14f71427d1e84f3dd0314c0f7b2291e5b200ac8c7c3b92583604051610ce39190611a7c565b60405180910390a3505050565b6000610cfc8484610a2e565b90507fffffffffffffffffffffffffffffffffffffffffffffffffffffffffffffffff8114610d765781811015610d68576040517f08c379a0000000000000000000000000000000000000000000000000000000008152600401610d5f906120c4565b60405180910390fd5b610d758484848403610b27565b5b50505050565b600073ffffffffffffffffffffffffffffffffffffffff168373ffffffffffffffffffffffffffffffffffffffff1603610deb576040517f08c379a0000000000000000000000000000000000000000000000000000000008152600401610de290612156565b60405180910390fd5b600073ffffffffffffffffffffffffffffffffffffffff168273ffffffffffffffffffffffffffffffffffffffff1603610e5a576040517f08c379a0000000000000000000000000000000000000000000000000000000008152600401610e51906121e8565b60405180910390fd5b610e65838383611507565b60008060008573ffffffffffffffffffffffffffffffffffffffff1673ffffffffffffffffffffffffffffffffffffffff16815260200190815260200160002054905081811015610eeb576040517f08c379a0000000000000000000000000000000000000000000000000000000008152600401610ee29061227a565b60405180910390fd5b8181036000808673ffffffffffffffffffffffffffffffffffffffff1673ffffffffffffffffffffffffffffffffffffffff16815260200190815260200160002081905550816000808573ffffffffffffffffffffffffffffffffffffffff1673ffffffffffffffffffffffffffffffffffffffff1681526020019081526020016000206000828254610f7e9190611d48565b925050819055508273ffffffffffffffffffffffffffffffffffffffff168473ffffffffffffffffffffffffffffffffffffffff167fddf252ad1be2c89b69c2b068fc378daa952ba7f163c4a11628f55a4df523b3ef84604051610fe29190611a7c565b60405180910390a3610ff584848461150c565b50505050565b61100c81611007610b1f565b611511565b50565b61101982826107f8565b6110ec5760016005600084815260200190815260200160002060000160008373ffffffffffffffffffffffffffffffffffffffff1673ffffffffffffffffffffffffffffffffffffffff16815260200190815260200160002060006101000a81548160ff021916908315150217905550611091610b1f565b73ffffffffffffffffffffffffffffffffffffffff168173ffffffffffffffffffffffffffffffffffffffff16837f2f8788117e7eff1d82e926ec794901d17c78024a50270940304540a733656f0d60405160405180910390a45b5050565b6110fa82826107f8565b156111ce5760006005600084815260200190815260200160002060000160008373ffffffffffffffffffffffffffffffffffffffff1673ffffffffffffffffffffffffffffffffffffffff16815260200190815260200160002060006101000a81548160ff021916908315150217905550611173610b1f565b73ffffffffffffffffffffffffffffffffffffffff168173ffffffffffffffffffffffffffffffffffffffff16837ff6391f5c32d9c69d2a47ea670b442974b53935d1edc7fd64eb21e047a839171b60405160405180910390a45b5050565b600073ffffffffffffffffffffffffffffffffffffffff168273ffffffffffffffffffffffffffffffffffffffff1603611241576040517f08c379a0000000000000000000000000000000000000000000000000000000008152600401611238906122e6565b60405180910390fd5b61124d60008383611507565b806002600082825461125f9190611d48565b92505081905550806000808473ffffffffffffffffffffffffffffffffffffffff1673ffffffffffffffffffffffffffffffffffffffff16815260200190815260200160002060008282546112b49190611d48565b925050819055508173ffffffffffffffffffffffffffffffffffffffff16600073ffffffffffffffffffffffffffffffffffffffff167fddf252ad1be2c89b69c2b068fc378daa952ba7f163c4a11628f55a4df523b3ef836040516113199190611a7c565b60405180910390a361132d6000838361150c565b5050565b600073ffffffffffffffffffffffffffffffffffffffff168273ffffffffffffffffffffffffffffffffffffffff16036113a0576040517f08c379a000000000000000000000000000000000000000000000000000000000815260040161139790612378565b60405180910390fd5b6113ac82600083611507565b60008060008473ffffffffffffffffffffffffffffffffffffffff1673ffffffffffffffffffffffffffffffffffffffff16815260200190815260200160002054905081811015611432576040517f08c379a00000000000000000000000000000000000000000000000000000000081526004016114299061240a565b60405180910390fd5b8181036000808573ffffffffffffffffffffffffffffffffffffffff1673ffffffffffffffffffffffffffffffffffffffff168152602001908152602001600020819055508160026000828254611489919061242a565b92505081905550600073ffffffffffffffffffffffffffffffffffffffff168373ffffffffffffffffffffffffffffffffffffffff167fddf252ad1be2c89b69c2b068fc378daa952ba7f163c4a11628f55a4df523b3ef846040516114ee9190611a7c565b60405180910390a36115028360008461150c565b505050565b505050565b505050565b61151b82826107f8565b6115aa576115408173ffffffffffffffffffffffffffffffffffffffff1660146115ae565b61154e8360001c60206115ae565b60405160200161155f929190612532565b6040516020818303038152906040526040517f08c379a00000000000000000000000000000000000000000000000000000000081526004016115a19190611977565b60405180910390fd5b5050565b6060600060028360026115c1919061256c565b6115cb9190611d48565b67ffffffffffffffff8111156115e4576115e36125c6565b5b6040519080825280601f01601f1916602001820160405280156116165781602001600182028036833780820191505090505b5090507f30000000000000000000000000000000000000000000000000000000000000008160008151811061164e5761164d6125f5565b5b60200101907effffffffffffffffffffffffffffffffffffffffffffffffffffffffffffff1916908160001a9053507f7800000000000000000000000000000000000000000000000000000000000000816001815181106116b2576116b16125f5565b5b60200101907effffffffffffffffffffffffffffffffffffffffffffffffffffffffffffff1916908160001a905350600060018460026116f2919061256c565b6116fc9190611d48565b90505b600181111561179c577f3031323334353637383961626364656600000000000000000000000000000000600f86166010811061173e5761173d6125f5565b5b1a60f81b828281518110611755576117546125f5565b5b60200101907effffffffffffffffffffffffffffffffffffffffffffffffffffffffffffff1916908160001a905350600485901c94508061179590612624565b90506116ff565b50600084146117e0576040517f08c379a00000000000000000000000000000000000000000000000000000000081526004016117d790612699565b60405180910390fd5b8091505092915050565b6000819050919050565b6117fd816117ea565b82525050565b600060208201905061181860008301846117f4565b92915050565b600080fd5b60007fffffffff0000000000000000000000000000000000000000000000000000000082169050919050565b61185881611823565b811461186357600080fd5b50565b6000813590506118758161184f565b92915050565b6000602082840312156118915761189061181e565b5b600061189f84828501611866565b91505092915050565b60008115159050919050565b6118bd816118a8565b82525050565b60006020820190506118d860008301846118b4565b92915050565b600081519050919050565b600082825260208201905092915050565b60005b838110156119185780820151818401526020810190506118fd565b83811115611927576000848401525b50505050565b6000601f19601f8301169050919050565b6000611949826118de565b61195381856118e9565b93506119638185602086016118fa565b61196c8161192d565b840191505092915050565b60006020820190508181036000830152611991818461193e565b905092915050565b600073ffffffffffffffffffffffffffffffffffffffff82169050919050565b60006119c482611999565b9050919050565b6119d4816119b9565b81146119df57600080fd5b50565b6000813590506119f1816119cb565b92915050565b6000819050919050565b611a0a816119f7565b8114611a1557600080fd5b50565b600081359050611a2781611a01565b92915050565b60008060408385031215611a4457611a4361181e565b5b6000611a52858286016119e2565b9250506020611a6385828601611a18565b9150509250929050565b611a76816119f7565b82525050565b6000602082019050611a916000830184611a6d565b92915050565b600080600060608486031215611ab057611aaf61181e565b5b6000611abe868287016119e2565b9350506020611acf868287016119e2565b9250506040611ae086828701611a18565b9150509250925092565b611af3816117ea565b8114611afe57600080fd5b50565b600081359050611b1081611aea565b92915050565b600060208284031215611b2c57611b2b61181e565b5b6000611b3a84828501611b01565b91505092915050565b60008060408385031215611b5a57611b5961181e565b5b6000611b6885828601611b01565b9250506020611b79858286016119e2565b9150509250929050565b600060ff82169050919050565b611b9981611b83565b82525050565b6000602082019050611bb46000830184611b90565b92915050565b600060208284031215611bd057611bcf61181e565b5b6000611bde848285016119e2565b91505092915050565b60008060408385031215611bfe57611bfd61181e565b5b6000611c0c858286016119e2565b9250506020611c1d858286016119e2565b9150509250929050565b7f4e487b7100000000000000000000000000000000000000000000000000000000600052602260045260246000fd5b60006002820490506001821680611c6e57607f821691505b602082108103611c8157611c80611c27565b5b50919050565b7f416363657373436f6e74726f6c3a2063616e206f6e6c792072656e6f756e636560008201527f20726f6c657320666f722073656c660000000000000000000000000000000000602082015250565b6000611ce3602f836118e9565b9150611cee82611c87565b604082019050919050565b60006020820190508181036000830152611d1281611cd6565b9050919050565b7f4e487b7100000000000000000000000000000000000000000000000000000000600052601160045260246000fd5b6000611d53826119f7565b9150611d5e836119f7565b9250827fffffffffffffffffffffffffffffffffffffffffffffffffffffffffffffffff03821115611d9357611d92611d19565b5b828201905092915050565b7f53616d706c65546f6b656e3a20596f7520646f206e6f7420686176652074686560008201527f206d696e74657220726f6c650000000000000000000000000000000000000000602082015250565b6000611dfa602c836118e9565b9150611e0582611d9e565b604082019050919050565b60006020820190508181036000830152611e2981611ded565b9050919050565b7f53616d706c65546f6b656e3a20596f7520646f206e6f7420686176652074686560008201527f206275726e657220726f6c650000000000000000000000000000000000000000602082015250565b6000611e8c602c836118e9565b9150611e9782611e30565b604082019050919050565b60006020820190508181036000830152611ebb81611e7f565b9050919050565b7f45524332303a2064656372656173656420616c6c6f77616e63652062656c6f7760008201527f207a65726f000000000000000000000000000000000000000000000000000000602082015250565b6000611f1e6025836118e9565b9150611f2982611ec2565b604082019050919050565b60006020820190508181036000830152611f4d81611f11565b9050919050565b7f45524332303a20617070726f76652066726f6d20746865207a65726f2061646460008201527f7265737300000000000000000000000000000000000000000000000000000000602082015250565b6000611fb06024836118e9565b9150611fbb82611f54565b604082019050919050565b60006020820190508181036000830152611fdf81611fa3565b9050919050565b7f45524332303a20617070726f766520746f20746865207a65726f20616464726560008201527f7373000000000000000000000000000000000000000000000000000000000000602082015250565b60006120426022836118e9565b915061204d82611fe6565b604082019050919050565b6000602082019050818103600083015261207181612035565b9050919050565b7f45524332303a20696e73756666696369656e7420616c6c6f77616e6365000000600082015250565b60006120ae601d836118e9565b91506120b982612078565b602082019050919050565b600060208201905081810360008301526120dd816120a1565b9050919050565b7f45524332303a207472616e736665722066726f6d20746865207a65726f20616460008201527f6472657373000000000000000000000000000000000000000000000000000000602082015250565b60006121406025836118e9565b915061214b826120e4565b604082019050919050565b6000602082019050818103600083015261216f81612133565b9050919050565b7f45524332303a207472616e7366657220746f20746865207a65726f206164647260008201527f6573730000000000000000000000000000000000000000000000000000000000602082015250565b60006121d26023836118e9565b91506121dd82612176565b604082019050919050565b60006020820190508181036000830152612201816121c5565b9050919050565b7f45524332303a207472616e7366657220616d6f756e742065786365656473206260008201527f616c616e63650000000000000000000000000000000000000000000000000000602082015250565b60006122646026836118e9565b915061226f82612208565b604082019050919050565b6000602082019050818103600083015261229381612257565b9050919050565b7f45524332303a206d696e7420746f20746865207a65726f206164647265737300600082015250565b60006122d0601f836118e9565b91506122db8261229a565b602082019050919050565b600060208201905081810360008301526122ff816122c3565b9050919050565b7f45524332303a206275726e2066726f6d20746865207a65726f2061646472657360008201527f7300000000000000000000000000000000000000000000000000000000000000602082015250565b60006123626021836118e9565b915061236d82612306565b604082019050919050565b6000602082019050818103600083015261239181612355565b9050919050565b7f45524332303a206275726e20616d6f756e7420657863656564732062616c616e60008201527f6365000000000000000000000000000000000000000000000000000000000000602082015250565b60006123f46022836118e9565b91506123ff82612398565b604082019050919050565b60006020820190508181036000830152612423816123e7565b9050919050565b6000612435826119f7565b9150612440836119f7565b92508282101561245357612452611d19565b5b828203905092915050565b600081905092915050565b7f416363657373436f6e74726f6c3a206163636f756e7420000000000000000000600082015250565b600061249f60178361245e565b91506124aa82612469565b601782019050919050565b60006124c0826118de565b6124ca818561245e565b93506124da8185602086016118fa565b80840191505092915050565b7f206973206d697373696e6720726f6c6520000000000000000000000000000000600082015250565b600061251c60118361245e565b9150612527826124e6565b601182019050919050565b600061253d82612492565b915061254982856124b5565b91506125548261250f565b915061256082846124b5565b91508190509392505050565b6000612577826119f7565b9150612582836119f7565b9250817fffffffffffffffffffffffffffffffffffffffffffffffffffffffffffffffff04831182151516156125bb576125ba611d19565b5b828202905092915050565b7f4e487b7100000000000000000000000000000000000000000000000000000000600052604160045260246000fd5b7f4e487b7100000000000000000000000000000000000000000000000000000000600052603260045260246000fd5b600061262f826119f7565b91506000820361264257612641611d19565b5b600182039050919050565b7f537472696e67733a20686578206c656e67746820696e73756666696369656e74600082015250565b60006126836020836118e9565b915061268e8261264d565b602082019050919050565b600060208201905081810360008301526126b281612676565b905091905056fea2646970667358221220017bdaad8dba3c0ac0224ae1e8a971274354052d7e1178fe8c279e2063c3a98164736f6c634300080f0033",
  "immutableReferences": {},
  "source": "// SPDX-License-Identifier: GPL-3.0\n\npragma solidity >=0.7.0 <0.9.0;\n\nimport \"@openzeppelin/contracts/token/ERC20/ERC20.sol\";\nimport \"@openzeppelin/contracts/access/AccessControl.sol\";\n\n/**\n* @title SampleERC20\n* @dev Create a sample ERC20 standard token\n*/\ncontract SampleToken is ERC20, AccessControl {\n        bytes32 public constant MINTERROLE = keccak256(\"MINTERROLE\");\n        bytes32 public constant BURNERROLE = keccak256(\"BURNERROLE\");\n\n    constructor(string memory tokenName, string memory tokenSymbol, uint totalSupply) ERC20(tokenName, tokenSymbol) {\n        _mint(msg.sender, totalSupply);\n        _setupRole(DEFAULT_ADMIN_ROLE, msg.sender);\n    }\n\n    function mint(address _to, uint _amount) public {\n        require(hasRole(MINTERROLE, msg.sender), \"SampleToken: You do not have the minter role\");\n        _mint(_to, _amount);\n    }\n\n    function burn(address _to, uint _amount) public {\n        require(hasRole(BURNERROLE, msg.sender), \"SampleToken: You do not have the burner role\");\n        _burn(_to, _amount);\n    }\n}\n",
  "sourcePath": "/mnt/8TB/projects/foundry/truffle/contracts/SampleToken.sol",
  "compiler": {
    "name": "solc",
    "version": "0.8.15+commit.e14f2714.Emscripten.clang"
  },
  "schemaVersion": "3.4.8",
  "updatedAt": "2022-08-06T09:02:36.135Z",
  "networkType": "ethereum",
  "devdoc": {
    "details": "Create a sample ERC20 standard token",
    "kind": "dev",
    "methods": {
      "allowance(address,address)": {
        "details": "See {IERC20-allowance}."
      },
      "approve(address,uint256)": {
        "details": "See {IERC20-approve}. NOTE: If `amount` is the maximum `uint256`, the allowance is not updated on `transferFrom`. This is semantically equivalent to an infinite approval. Requirements: - `spender` cannot be the zero address."
      },
      "balanceOf(address)": {
        "details": "See {IERC20-balanceOf}."
      },
      "decimals()": {
        "details": "Returns the number of decimals used to get its user representation. For example, if `decimals` equals `2`, a balance of `505` tokens should be displayed to a user as `5.05` (`505 / 10 ** 2`). Tokens usually opt for a value of 18, imitating the relationship between Ether and Wei. This is the value {ERC20} uses, unless this function is overridden; NOTE: This information is only used for _display_ purposes: it in no way affects any of the arithmetic of the contract, including {IERC20-balanceOf} and {IERC20-transfer}."
      },
      "decreaseAllowance(address,uint256)": {
        "details": "Atomically decreases the allowance granted to `spender` by the caller. This is an alternative to {approve} that can be used as a mitigation for problems described in {IERC20-approve}. Emits an {Approval} event indicating the updated allowance. Requirements: - `spender` cannot be the zero address. - `spender` must have allowance for the caller of at least `subtractedValue`."
      },
      "getRoleAdmin(bytes32)": {
        "details": "Returns the admin role that controls `role`. See {grantRole} and {revokeRole}. To change a role's admin, use {_setRoleAdmin}."
      },
      "grantRole(bytes32,address)": {
        "details": "Grants `role` to `account`. If `account` had not been already granted `role`, emits a {RoleGranted} event. Requirements: - the caller must have ``role``'s admin role. May emit a {RoleGranted} event."
      },
      "hasRole(bytes32,address)": {
        "details": "Returns `true` if `account` has been granted `role`."
      },
      "increaseAllowance(address,uint256)": {
        "details": "Atomically increases the allowance granted to `spender` by the caller. This is an alternative to {approve} that can be used as a mitigation for problems described in {IERC20-approve}. Emits an {Approval} event indicating the updated allowance. Requirements: - `spender` cannot be the zero address."
      },
      "name()": {
        "details": "Returns the name of the token."
      },
      "renounceRole(bytes32,address)": {
        "details": "Revokes `role` from the calling account. Roles are often managed via {grantRole} and {revokeRole}: this function's purpose is to provide a mechanism for accounts to lose their privileges if they are compromised (such as when a trusted device is misplaced). If the calling account had been revoked `role`, emits a {RoleRevoked} event. Requirements: - the caller must be `account`. May emit a {RoleRevoked} event."
      },
      "revokeRole(bytes32,address)": {
        "details": "Revokes `role` from `account`. If `account` had been granted `role`, emits a {RoleRevoked} event. Requirements: - the caller must have ``role``'s admin role. May emit a {RoleRevoked} event."
      },
      "supportsInterface(bytes4)": {
        "details": "See {IERC165-supportsInterface}."
      },
      "symbol()": {
        "details": "Returns the symbol of the token, usually a shorter version of the name."
      },
      "totalSupply()": {
        "details": "See {IERC20-totalSupply}."
      },
      "transfer(address,uint256)": {
        "details": "See {IERC20-transfer}. Requirements: - `to` cannot be the zero address. - the caller must have a balance of at least `amount`."
      },
      "transferFrom(address,address,uint256)": {
        "details": "See {IERC20-transferFrom}. Emits an {Approval} event indicating the updated allowance. This is not required by the EIP. See the note at the beginning of {ERC20}. NOTE: Does not update the allowance if the current allowance is the maximum `uint256`. Requirements: - `from` and `to` cannot be the zero address. - `from` must have a balance of at least `amount`. - the caller must have allowance for ``from``'s tokens of at least `amount`."
      }
    },
    "title": "SampleERC20",
    "version": 1
  },
  "userdoc": {
    "kind": "user",
    "methods": {},
    "version": 1
  }
}